:0E0000000C945B000C9400000C9400000C9417
:10000E0000000C9400000C9400000C9400000C9462
:10001E0000000C9400000C9400000C9400000C9452
:10002E0000000C9400000C9400000C9400000C9442
:10003E0000000C9400000C9400000C9400000C9432
:10004E0000000C9400001027E80364000A00010071
:10005E000010000110000100000000010F0005005B
:10006E004D6F64653A204155544F004D6F64653AAB
:10007E00204D414E55414C004D696E3A200025648D
:10008E00004D61783A200044697374616E63653A7D
:10009E002000256420636D0080C008000400660007
:1000AE0002007001A6000000F894EE27ECBBF1E010
:1000BE00FBBFEBBFE5BF8DE0A2E0BB27ED938A95BA
:1000CE00E9F780E094E0A0E6ED930197E9F7E8EA1E
:1000DE00F0E085919591009761F0A591B59105900D
:1000EE001590BF01F00105900D920197E1F7FB010C
:1000FE00F0CFEFE5EDBFE4E0EEBFC0E6D1E00C944B
:10010E002B01E0E4E7B9E0EEE6B9E6B1E660E6B968
:10011E00089528971A930A93889A8998909885E05B
:10012E008A95F1F7909A8BE18A95F1F79098E0E035
:10013E00EA83EB83EC83ED83819903C00E94400434
:10014E0008F003C00E944C04F7CF0E94400418F040
:10015E00E0E0F0E039C0E0E0F0E0FDBDECBDE1E054
:10016E00EEBDE0E0EA83EB83EC83ED83819B03C07D
:10017E000E94400408F003C00E944C04F7CF0E9476
:10018E00400418F0E0E0F0E01FC0E0E0EEBDECB59A
:10019E00FDB566277727EE83FF83688779870E94F0
:1001AE005205DF01CB01EDECFCEC68E673E40E9436
:1001BE008205DF01CB01E0E0F0E060E070E40E9438
:1001CE0082050E941B058F01198108812A960895C8
:1001DE000E945904E1E0E41519F4AEE6B0E002C065
:1001EE00A9E7B0E043D1089560970E9460040E9491
:1001FE0069040E9471040E947B040E947E040E9486
:10020E0069040E9482040E947B0460960895BA934A
:10021E00AA9360970E945904A5E9B0E027D1FE0188
:10022E00FA93EA93E0EAF0E0FA93EA93EC89FD8917
:10023E00662777270E94E40584E00E94F303289640
:10024E000E947B04629608958A98929A8D98959A48
:10025E008C98949A8B98939ABA9AC29AE0E0EFBDD2
:10026E00E1E0EEBD4EDFA0E114D1829907C05394B8
:10027E00E3E0E51508F45524829BFECFE52DF0E072
:10028E00309751F446DF6F01D601C1DFADDFA4E632
:10029E00B0E00E94E4045AC0E130A0E0FA0759F43D
:1002AE0097DF859907C0E42D0E94D7054E2E90DF6B
:1002BE00859BFECF4BC0E230A0E0FA0719F594DF24
:1002CE00859911C0E5E0F0E0E815F90518F4F401A0
:1002DE0031974F0195D00E9460040E948C040E94B9
:1002EE009504859BFECF84990CC0F40131964F0185
:1002FE0087D00E9460040E948C040E949504849B07
:10030E00FECF24C0E330A0E0FA0701F56DDF85993A
:10031E000BC0F50131975F010E9499040E94A10460
:10032E000E949504859BFECF849910C0EFE0F0E00B
:10033E00AE16BF0618F4F50131965F010E949904BE
:10034E000E94A1040E949504849BFECFE1E0E41577
:10035E0059F4C814D90410F0772405C0AC14BD04A8
:10036E0010F0E1E07E2E12C0442081F4839906C085
:10037E00E72D0E94D7057E2E839BFECFAC14BD04C5
:10038E0010F0772009F002C0E1E07E2E772011F404
:10039E00C29801C0C29AA2E3B0E00E94E40465CF05
:1003AE00FFCFAA93E5B3EF70AE2FE881E07FEA2B83
:1003BE00E5BB8DE08A95F1F7AB9A8DE08A95F1F762
:1003CE00AB988DE08A95F1F791C0AA93A881E9DFE9
:1003DE00E881E295E883A881E4DF85E88A95F1F764
:1003EE0085C0AA93E881F0E0E059FE4FE081A98133
:1003FE00AE0FEBDF6980E881E093740122960895D9
:10040E00A2E00E94AA04ACE0E0DFA1E00E94AA04F0
:10041E00E0E0E09374016E2E0895AA93A881AA30AD
:10042E0021F0E09175016E1660F0E0E0EA93A09184
:10043E007401AF5FA0937401D4DFA881AA3009F4D0
:10044E0055C06394A99AA881C0DFA9984FC0BA93EA
:10045E00AA931A93A981BA81ED91A983BA831E2F0B
:10046E00E03019F0A12FD9DFF5CF10C0BA93AA93BF
:10047E001A93E981FA813196E983FA833197E491EF
:10048E001E2FE03019F0A12FC8DFF3CF188123966D
:10049E000895AA93E4B3E06FE4BBA39AA19AA29A3B
:1004AE00AB98A998AA98E881E0937501E058E0937B
:1004BE007201E881E054E0937301A4E1B0E00E9480
:1004CE00E4040E94B0040E94B0040E94B004A0E2B2
:1004DE0068DF88EC90E00197F1F7A8E276DFA4E000
:1004EE0074DFA5E872DFA6E070DF8ADF219608953B
:1004FE00BA93AA931A930A93AA81BB8112960E9469
:10050E00DC05309759F1AA81BB8114960E94DC0557
:10051E008F01309761F00230E0E01E0798F0F8018D
:10052E0031978F01AA81BB811496ED93FC93AA811A
:10053E00BB811296ED91FD913196FE93EE9331971C
:10054E00AC81A083AA81BB810E94DC05FF232AF027
:10055E00ED91FD913196FE93EE9306C0AA81BB817B
:10056E00EFEFFFEFED93FC93198108812596089527
:10057E00BA93AA9326970E94E90510E0AC85BD8533
:10058E00E0E0F0E0ED93FC93EA89FB893196EA8B8B
:10059E00FB8B3197E4912E2FE03009F415C1E12F3A
:1005AE00E03039F4253211F411E002C00E94B80493
:1005BE000AC1E130A9F4253219F40E94B80402C12F
:1005CE0012E040E000E02D3211F401E0FCC02B32CD
:1005DE0011F44BE2F8C0203211F440E2F4C002C034
:1005EE00E23039F450E013E0203311F40068EBC030
:1005FE0003C0E33009F0E7C0203310F02A3308F0CF
:10060E0007C0AAE05A9F502DE22FE0535E0FDBC0C9
:10061E00E22FE33649F40E94BF04E889F989A481E8
:10062E00AA930E94C504CEC0E33741F40E94BF04D2
:10063E000E94CB040E9427041E2F0AC0E03761F4EB
:10064E000E94BF040E94CB040E9433041E2F086038
:10065E0002600F7730E034C0E43611F0E93611F461
:10066E00046002C0E53731F4E4E5F0E0EE83FF8389
:10067E0015E00CC0E83511F4086003C0E83709F046
:10068E00A1C0EEE5F0E0EE83FF8314E002FF14C09C
:10069E000E94BF040E94D504AB85AA233AF4EA85D2
:1006AE00FB850E94CB05EA87FB874DE2403011F0B7
:1006BE001F5F01C00B7F04C00E94BF040E94D504BF
:1006CE0000FD11C0151778F407FF08C002FF04C023
:1006DE000B7F242F115001C020E301C020E20E94A5
:1006EE00B8045150EFCF312F01FF17C03030A1F0B9
:1006FE0003FF06C0EE81FF812591EE83FF8305C0C7
:10070E00AE81BF812D91AE83BF830E94B80450305D
:10071E0009F051503150EACF4BC020E3EE81FF81FA
:10072E000E94E005E887F987EE81FF813296EE831D
:10073E00FF83E885F985AA85BB85AE17BF0750F004
:10074E002F5FA885B985EA85FB85EA1BFB0BEA8737
:10075E00FB87EFCF2A3328F003FF02C0295F01C0C9
:10076E00295D04FD1AC0213320F4A885B98511979F
:10077E0009F409C0531710F000FF01C013C020E2A6
:10078E0007FF0BC020E3006102FF07C00B7F4A93F7
:10079E000E94C504503009F051500E94B8045030E8
:1007AE0009F051503150A885B985129708F0B5CF90
:1007BE0000FF08C0503031F05150E0E2EA930E9441
:1007CE00C504F8CF10E0E0CEAC85BD850E94DC05F7
:1007DE000E94F00564960895FF92F82E26970E94C7
:1007EE00EB050E94DD04309719F4EFEFFFEF23C005
:1007FE00DE0116960E94C7058D010E94DD04EE8370
:10080E00FF83E0E0E887E987DE011A960E94C705BC
:10081E000E94DC05FA93EA931A930A93EFE7F2E04B
:10082E00FA93EA93DE011A96A3DE9F01AE81BF8191
:10083E00E0E0EC93F9010E94F2052A96FF900895EC
:10084E00BA93AA93A991B991EE27FF276D916623CA
:10085E0011F03196FBCF0895BA93AA93AA27BB271E
:10086E00E991F9910590002011F01196FBCFFD0151
:10087E000895AA81BB818C819D81A031E7E2BE07DC
:10088E00E0E08E07E0E09E070895EA81FB816C812F
:10089E007D81EF5FFF4F6F4F7F4FEA83FB836C834A
:1008AE007D8308950E940702E0E0EA93A0E00C9495
:1008BE00F801E0E0EA93A1E00E94F801A6E8B0E0BA
:1008CE000C943D02FE01FA93EA93ECE8F0E0FA9301
:1008DE00EA930895F401662777270E94E40584E0E1
:1008EE000E94F30328960895DE010C942E02AFE8C1
:1008FE00B0E00C943D02F501662777270E94E405CF
:10090E0084E00E94F30328960895E0E6F1E0FA935E
:10091E00EA93ECE8F0E0FA93EA93DCCFA0E6B1E0DC
:10092E000C942E020E940702E7E0EA93A1E00E94D7
:10093E00F801DDCFE0E6F1E0FA93EA93ECE8F0E0BF
:10094E00FA93EA93D8CF0E94EC01A3E0B0E00C94A6
:10095E00E404A0E30E94D80188EC90E00197F1F73F
:10096E0008952A93AD85BE85EF85F889099508957A
:10097E00E889F9893497E88BF98B0895AD85BE85A2
:10098E00EF85F88909950895A889B98914960E946A
:10099E00DC05EE83FF83AE81BF810895A889B989F6
:1009AE0014960E94DC05EA87FB870895DE011C96EB
:1009BE000E94C7050E94DC050895109639F080ED5F
:1009CE0097E00197F1F7A8951197C9F70895552368
:1009DE0042F4503811F4E0FF04C03196691F791FBC
:1009EE006BF050E8572711F45F9373C05F3F31F0FF
:1009FE00660F000C57956795752F08955F9300202D
:100A0E000AF073C06CC050E8192E1522880F991F7A
:100A1E009527550F879550E8072E0522660F771FED
:100A2E007527550F67950895689401C0E8945F93F4
:100A3E00F2DF703818F07F3F08F44BC056E1571BB9
:100A4E00AAF4519558300EF4593030F0EFEFFFEF15
:100A5E006FEF7FE777F91AC077275523B9F0EE0FBE
:100A6E00FF1F661F771F5A95D1F710C07727583092
:100A7E0028F0EF2FF62F672F5850F9CF552331F06E
:100A8E0076956795F795E7955A95D1F700200AF474
:100A9E007FD05F910895689401C0E89430976040CC
:100AAE007040B1F0002426F0772312F4009470D039
:100ABE00172E7EE1112032F07A95EE0FFF1F661F82
:100ACE00111CF9CFEF2FF62F612D5F938ADF5F9107
:100ADE000895EE27FF27662777275F910895EFEF9A
:100AEE00FFEF6FE77FEF5F910895EFEFFFEF6FE797
:100AFE007FE75F9108955F9386DF703821F41120B0
:100B0E000AF4EDCFF2CF903809F4E3CF0124089424
:100B1E00970B1BF4D4F30020F3CF792F1F932F9351
:100B2E003F934F931124112722273327442755270C
:100B3E0090E2AE17BF078607410730F0AE1BBF0B22
:100B4E00860B410B089401C08894551F221F331F3A
:100B5E00111CAA1FBB1F881F441F9A9551F7F9013C
:100B6E00612D4F913F912F911F91662332F0550FBA
:100B7E00EE1FFF1F661F7A9543F229DF5F910895DE
:100B8E000024AF0DB01D0895F195E195F040089544
:100B9E00F09560957095E195FF4F6F4F7F4F0895DB
:100BAE00EE23E1E009F0EE270895ED91FC91119707
:100BBE0008950590F491E02D08957A936A93FA932F
:100BCE00EA9308955A934A933A932A931A930A935F
:100BDE0008955D814C813B812A8119810881089598
:00000001FF
